:04000000020029329F
:03000B0002017A75
:0100130032BA
:01001B0032B2
:030023000200EAEE
:0300820002002653
:0300260002008550
:20008500C00AE581F50A2410F5811201C51202C5D2AF90033F75F08012026FB2A6B2C175D6
:2000A50082321202D812026AE582FF60EEAE0A0E8E037C007D40C007C006C0078B828C8369
:2000C5008DF01201FC1581D006D007EF2EF876007F007D408E828F838DF012026F80BC85A2
:2000E5000A81D00A22C0E0C007C006C001C000C0D075D000109902802D782F860778308637
:2001050006C3EF9E5012782FE6241FF98799782FE6FF04782FF680507831760078307600FF
:20012500782F76008042109802803D781C8607BF10005030781CE6240BF8A699781CE604A6
:20014500781CF6781C8607BF031E780B8607BF5A17780C8607BF3A10780D8607BF6C09432C
:20016500C7608004781C7600D0D0D000D001D006D007D0E032C0E0E5086005E50814F50805
:03018500D0E03295
:17033F00303132333435363738393031323334356162636465660016
:20018800AD82AE83AFF074112DFAE43EFB8F048A828B838CF0E412030474102DFAE43EFBA1
:2001A8008F048A828B838CF0E412030474122DFDE43EFE8D828E838FF0E4020304E59854E4
:2001C8003F4440F59853A23F538EEF438E01438E0475D6FF75D7D0438E10D29CD2AC900059
:2001E8000B75F04012018890001F75F04012018875090022C00A85810A0581AD82AE83AFAE
:20020800F0E50A24FDF8E624EF500280508D828E838FF0E4120304A80A087600A80A08E558
:200228000A24FDF9C3E6975030A80A08E62DFAE43EFB8F04A80A08E6240BF9C005C006C048
:200248000787078A828B838CF0EF120304A80A0806D007D006D00580C3781C76001581D06E
:200268000A22781C868222AD82AE83AFF07831E670FB7830F68D828E838FF012031FFC60C6
:20028800317830E6241FF8A6047830E6047830F60DBD00010E78308604BC100040D7782FED
:2002A800760078317601D2997831E670FB7830F680C3782F760078317601D29922438E803F
:2002C8005389F0758A9A758CA9C28DD28CD2A922858208E50870FC22AE82AF83EE4F601B19
:1C02E8007C0B7D00EC24FFFAED34FFFB8A048B05EA4B70F01EBEFF011F80E122A1
:06005800E478FFF6D8FD7C
:200036007900E94400601B7A00900356780175A000E493F2A308B8000205A0D9F4DAF27517
:02005600A0FF09
:1B03040020F71130F6138883A88220F509F6A8837583002280FEF280F5F022F8
:20005E007800E84400600A790175A000E4F309D8FC7800E84400600C7900900001E4F0A3A0
:04007E00D8FCD9FAD7
:0D00290075813212033BE582600302002660
:1C031F0020F71430F6148883A88220F507E6A88375830022E280F7E49322E022ED
:04033B0075820022A5
:00000001FF
