:03000000020006F5
:03005F0002000399
:0300030002007D7B
:20006200AE82AF837C647D001CBCFF011DEC4D70F71EBEFF011FEE4F70EA22759100759269
:2000820000D2B1D2B0D2B2D2B3D2B5D2B4D2B0D2B1D2B2D2B3D2B4D2B59001F4120062C26D
:1300A200B0C2B1C2B2C2B3C2B4C2B59001F412006280DAFF
:1B00B500AE82AF837C157D031CBCFF011DEC4D70F71EBEFF011FEE4F70EA2274
:06003500E478FFF6D8FD9F
:200013007900E94400601B7A009000D4780175A000E493F2A308B8000205A0D9F4DAF275BF
:02003300A0FF2C
:20003B007800E84400600A790175A000E4F309D8FC7800E84400600C7900900001E4F0A3C3
:04005B00D8FCD9FAFA
:0D0006007581071200D0E58260030200033F
:0400D0007582002213
:00000001FF
