:03000000020006F5
:03005F0002000399
:0300030002008B6D
:10006200AE82AF837C647D00EC24FFFAED34FFFBAB
:100072008A048B05EA4B70F0EE24FFFCEF34FFFD9F
:100082008C068D07EC4D70DC22759100759200D2C2
:10009200B1D2B0D2B2D2B3D2B5D2B4D2B0D2B1D23E
:1000A200B2D2B3D2B4D2B59001F4120062C2B0C2DD
:1000B200B1C2B2C2B3C2B4C2B59001F4120062803E
:1000C200DAAE82AF837C157D03EC24FFFAED34FFB8
:1000D200FB8A048B05EA4B70F0EE24FFFCEF34FF41
:0A00E200FD8C068D07EC4D70DC224A
:06003500E478FFF6D8FD9F
:100013007900E94400601B7A009000F0780175A034
:1000230000E493F2A308B8000205A0D9F4DAF2754C
:02003300A0FF2C
:10003B007800E84400600A790175A000E4F309D860
:10004B00FC7800E84400600C7900900001E4F0A318
:04005B00D8FCD9FAFA
:0D0006007581071200ECE582600302000323
:0400EC0075820022F7
:00000001FF
