:10008500AD82AE83AFF074112DFAE43EFB8F048A86
:10009500828B838CF0E41202BB74102DFAE43EFBD4
:1000A5008F048A828B838CF0E41202BB74122DFDBF
:1000B500E43EFE8D828E838FF0E40202BBE5985408
:1000C5003F4440F59853A23F538EEF438E01438E34
:1000D5000475D6FF75D7D0438E10D29CD2AC900054
:1000E5001E75F04012008590003275F040120085B3
:1000F5007509002285821B85831C85F01DE51A2460
:10010500EF500122851B82851C83851DF0E41202B8
:10011500BB7C00C3EC951A501DEC251BFAE4351C7D
:10012500FBAF1DEC241EF987068A828B838FF0EEC8
:100135001202BB0C80DD782F760022782F86822272
:10014500AD82AE83AFF07844E670FB7843F68D82DE
:100155008E838FF01202D6FC60317843E62432F8A4
:10016500A6047843E6047843F60DBD00010E7843F6
:100175008604BC100040D77842760078447601D2D8
:10018500997844E670FB7843F680C3784276007828
:10019500447601D29922438E805389F0758A9A75E7
:1001A5008CA9C28DD28CD2A922858208E50870FC63
:1001B50022AE82AF83EE4F601B7C0B7D00EC24FFEB
:1001C500FAED34FFFB8A048B05EA4B70F01EBEFF87
:0501D500011F80E12282
:04000000020029329F
:03000B0002026A84
:0100130032BA
:01001B0032B2
:030023000201DAFD
:0300820002002653
:030026000202785B
:1001DA00C0E0C007C006C001C000C0D075D0001082
:1001EA009902802D7842860778438606C3EF9E508F
:1001FA00127842E62432F987997842E6FF04784277
:10020A00F68050784476007843760078427600800B
:10021A0042109802803D782F8607BF100050307830
:10022A002FE6241EF8A699782FE604782FF6782F61
:10023A008607BF031E781E8607BF5A17781F8607D0
:10024A00BF3A1078208607BF6C0943C760800478DC
:10025A002F7600D0D0D000D001D006D007D0E0321F
:10026A00C0E0E5086005E50814F508D0E0321200A0
:10027A00C212019BD2AF9002F675F080120145B20C
:10028A00A6B2C17582321201AE120140E582FF6048
:10029A00EE8F1A90000A75F040C0071200F9D007D5
:1002AA00EF240AF8760090000A75F04012014580A2
:0102BA00CE75
:1002F60030313233343536373839303132333435BC
:07030600616263646566009B
:06005800E478FFF6D8FD7C
:100036007900E94400601B7A0090030D780175A0F1
:1000460000E493F2A308B8000205A0D9F4DAF27529
:02005600A0FF09
:1002BB0020F71130F6138883A88220F509F6A8835E
:0B02CB007583002280FEF280F5F02217
:10005E007800E84400600A790175A000E4F309D83D
:10006E00FC7800E84400600C7900900001E4F0A3F5
:04007E00D8FCD9FAD7
:0D0029007581451202F2E582600302002697
:1002D60020F71430F6148883A88220F507E6A88351
:1002E60075830022E280F7E49322E02275820022E1
:00000001FF
